:020000040000FA
:04000000CEEF1DF032
:10080000002020202050524F594543544F20202093
:1008100020002020205445524D4F4D4554524F202A
:10082000202000202054454D5045524154555241FE
:100830003A202000202044414E49454C2052414D51
:100840004F532020002052414641454C2043414E09
:100850005445524F200020202020252E3266204370
:100860002020202000494E46004E414E00696E6611
:09087000006E616E006C66000070
:10087A00000E00017B6F000E7A6F30C08CF031C021
:10088A008DF032C08EF033C08FF08FBF51EF04F07D
:10089A004FEF04F067EF04F0000E7B6F010E7A6FE2
:1008AA008CC001F08DC002F08EC003F08FC004F03E
:1008BA003CEC1DF001C08CF002C08DF003C08EF03C
:1008CA0004C08FF0000E0001936F000E926FB2C049
:1008DA007FF0B3C080F07A517B11D8A477EF04F08F
:1008EA0079EF04F080EF04F0B6A57EEF04F080EF14
:1008FA0004F09AEF04F07A517B11D8A487EF04F040
:10090A0089EF04F08FEF04F0000E656F2B0E646F11
:10091A0093EF04F0000E656F2D0E646F64C000F152
:10092A00924B932B7F07D8A080078CC001F08DC013
:10093A0002F08EC003F08FC004F0BBEC17F0010484
:10094A000210D8A4ABEF04F0ADEF04F004EF05F009
:10095A00BF0E356EFF0E366E3450376E386A35501C
:10096A0037263650382238500AE11A0E375CD8A09A
:10097A00C1EF04F0C4EF04F0010EC5EF04F0000E5D
:10098A000001666F676B66516711D8B4CFEF04F048
:10099A00D1EF04F0DFEF04F0000E9225016E010E94
:1009AA009321026E650E036E080E046EC3EC1BF0F3
:1009BA00EBEF04F0000E9225016E010E9321026EF8
:1009CA006D0E036E080E046EC3EC1BF00001FD0EE3
:1009DA007F27FF0E80232EC011F02FC012F0000EC9
:1009EA00136E010E146E7FC015F080C016F07FECF6
:1009FA0019F011C02EF012C02FF014EF0AF08CC0BB
:100A0A0001F08DC002F08EC003F08FC004F0BBEC81
:100A1A0017F001500210D8A415EF05F017EF05F0F2
:100A2A0057EF05F0BF0E356EFF0E366E3450376E37
:100A3A00386A355037263650382238500AE11A0EAD
:100A4A00375CD8A02BEF05F02EEF05F0010E2FEF43
:100A5A0005F0000E0001686F696B68516911D8B41E
:100A6A0039EF05F03BEF05F049EF05F0000E92254E
:100A7A00016E010E9321026E690E036E080E046E5A
:100A8A00C3EC1BF0EBEF04F0000E9225016E010E91
:100A9A009321026E710E036E080E046EC3EC1BF0F6
:100AAA00EBEF04F0000E0001946F000E956F800EBC
:100ABA00966F3F0E976F000E916F000E906F8CC06D
:100ACA0001F08DC002F08EC003F08FC004F0000E5A
:100ADA00056E000E066E000E076E000E086E9CEC88
:100AEA001AF0D8B07BEF05F07DEF05F000EF06F0C5
:100AFA009CEF05F094C001F095C002F096C003F097
:100B0A0097C004F0000E056E000E066E200E076EEA
:100B1A00410E086EA5EC0EF001C094F002C095F0EB
:100B2A0003C096F004C097F00001904B912B8CC043
:100B3A001AF08DC01BF08EC01CF08FC01DF0000E85
:100B4A00056E000E066E200E076E410E086E94C0EA
:100B5A0001F095C002F096C003F097C004F0A5EC2E
:100B6A000EF001C01EF002C01FF003C020F004C046
:100B7A0021F039EC17F0D8B0C5EF05F0C7EF05F052
:100B8A007FEF05F0E7EF05F094C001F095C002F0A1
:100B9A0096C003F097C004F0000E056E000E066EB4
:100BAA00200E076E410E086EBAEC10F001C094F0E8
:100BBA0002C095F003C096F004C097F000019007B8
:100BCA00D8A091078CC01AF08DC01BF08EC01CF003
:100BDA008FC01DF094C01EF095C01FF096C020F083
:100BEA0097C021F039EC17F0D8A0FEEF05F000EF1E
:100BFA0006F0C9EF05F034C007F0086A93EC1BF061
:100C0A0007500001816F81C07EF0670E8119D8A458
:100C1A0011EF06F013EF06F039EF06F0B451B511F3
:100C2A00D8A41AEF06F01CEF06F020EF06F0000E2B
:100C3A00B56F010EB46FB5BF2DEF06F0B55106E1E1
:100C4A00B405D8B02BEF06F02DEF06F033EF06F01F
:100C5A00000E7D6F060E7C6F42EF06F0B4C07CF08A
:100C6A00B5C07DF042EF06F0B5BF3EEF06F040EFAB
:100C7A0006F02DEF06F033EF06F0670E8119D8A4BF
:100C8A0049EF06F04BEF06F07AEF06F091AF59EF15
:100C9A0006F0FC0E905DFF0E9159D8A057EF06F0B2
:100CAA0059EF06F078EF06F0FF0E356EFF0E366E3E
:100CBA007CC037F07DC038F03550372636503822A0
:100CCA009051375C3850800A396E9151800A3958F0
:100CDA00D8A072EF06F074EF06F078EF06F0660E11
:100CEA007E6F7AEF06F0650E7E6F7CC074F07DC071
:100CFA0075F0670E8119D8A485EF06F087EF06F024
:100D0A0097EF06F0660E7E19D8A48EEF06F090EFE4
:100D1A0006F099EF06F091BF97EF06F095EF06F00F
:100D2A0099EF06F0744B752B660E7E19D8A4A0EFC6
:100D3A0006F0A2EF06F0C2EF06F091BFA9EF06F0A7
:100D4A00A7EF06F0B5EF06F0000E946F000E956F50
:100D5A00800E966F3F0E976F000E916F000E906F88
:100D6A00670E8119D8B4BCEF06F0BEEF06F0C2EFE9
:100D7A0006F09051742791517523000E8B6F000E67
:100D8A008A6F8CC082F08DC083F08EC084F08FC0D1
:100D9A0085F094C060F095C061F096C062F097C08B
:100DAA0063F053EF07F082C001F083C002F084C001
:100DBA0003F085C004F094C005F095C006F096C013
:100DCA0007F097C008F0BAEC10F001C01AF002C0A0
:100DDA001BF003C01CF004C01DF087EC12F01AC00F
:100DEA0086F01BC087F01CC088F01DC089F086C041
:100DFA0001F087C002F088C003F089C004F0B6ECA5
:100E0A0016F001C078F002C079F082C01AF083C0EF
:100E1A001BF084C01CF085C01DF094C005F095C07D
:100E2A0006F096C007F097C008F086C001F087C0A8
:100E3A0002F088C003F089C004F0A5EC0EF001C0EE
:100E4A001EF002C01FF003C020F004C021F099EC8C
:100E5A001CF01AC082F01BC083F01CC084F01DC0B5
:100E6A0085F094C001F095C002F096C003F097C0D7
:100E7A0004F0000E056E000E066E200E076E410E7F
:100E8A00086EBAEC10F001C094F002C095F003C0ED
:100E9A0096F004C097F000018A4B8B2B74518A5D3F
:100EAA008B51800A356E7551800A3558D8A060EF8B
:100EBA0007F062EF07F0D8EF06F094C001F095C092
:100ECA0002F096C003F097C004F0000E056E000E03
:100EDA00066EA00E076E400E086EA5EC0EF001C05D
:100EEA0086F002C087F003C088F004C089F082C08F
:100EFA001AF083C01BF084C01CF085C01DF086C0A8
:100F0A001EF087C01FF088C020F089C021F039EC9C
:100F1A0017F0D8B093EF07F095EF07F0A0EF07F0BE
:100F2A00000E0001866F000E876F000E886F000E9C
:100F3A00896FC9EF07F082C001F083C002F084C054
:100F4A0003F085C004F086C005F087C006F088C0AB
:100F5A0007F089C008F09CEC1AF0D8A0B7EF07F0A8
:100F6A00B9EF07F0C9EF07F0000178B1BFEF07F05A
:100F7A00C1EF07F0C9EF07F0000E866F000E876F0A
:100F8A00000E886F000E896F8CC001F08DC002F0D0
:100F9A008EC003F08FC004F086C005F087C006F04B
:100FAA0088C007F089C008F015EC0AF001C082F089
:100FBA0002C083F003C084F004C085F060C094F0DE
:100FCA0061C095F062C096F063C097F0650E0001AB
:100FDA007E19D8B4F3EF07F0F5EF07F0FBEF07F04F
:100FEA0090C076F091C077F0FFEF07F0000E776FB0
:100FFA00000E766F000E736F000E726F000E716F27
:10100A00000E706F000E8B6F000E8A6FFAEF08F0F9
:10101A0082C001F083C002F084C003F085C004F0EE
:10102A0094C005F095C006F096C007F097C008F086
:10103A00BAEC10F001C01AF002C01BF003C01CF099
:10104A0004C01DF087EC12F01AC086F01BC087F0AE
:10105A001CC088F01DC089F086C001F087C002F06C
:10106A0088C003F089C004F0B6EC16F001C078F02D
:10107A0002C079F00001B6B945EF08F047EF08F071
:10108A0064EF08F078517911D8A44EEF08F050EFC8
:10109A0008F064EF08F0670E8119D8A457EF08F03A
:1010AA0059EF08F064EF08F077BF60EF08F05EEFE1
:1010BA0008F064EF08F0704B712BAEEF08F0725134
:1010CA007311D8A46BEF08F06DEF08F097EF08F0F2
:1010DA0077BF74EF08F072EF08F097EF08F0000E90
:1010EA009225D96E010E9321DA6E2E0EDF6E924B87
:1010FA00932B7F07D8A08007000E736F010E726FC3
:10110A0097EF08F0000E9225D96E010E9321DA6E40
:10111A00300EDF6E924B932B7F07D8A080077007A3
:10112A00D8A0710770517111D8A49EEF08F0A0EFF2
:10113A0008F087EF08F0000E9225D96E010E932170
:10114A00DA6E7851300FDF6E924B932B7F07D8A05F
:10115A00800782C01AF083C01BF084C01CF085C0CF
:10116A001DF094C005F095C006F096C007F097C030
:10117A0008F086C001F087C002F088C003F089C079
:10118A0004F0A5EC0EF001C01EF002C01FF003C06F
:10119A0020F004C021F099EC1CF01AC082F01BC0A8
:1011AA0083F01CC084F01DC085F094C001F095C086
:1011BA0002F096C003F097C004F0000E056E000E10
:1011CA00066E200E076E410E086EBAEC10F001C0D2
:1011DA0094F002C095F003C096F004C097F00001A5
:1011EA007607D8A077078A4B8B2B74518A5D8B516F
:1011FA00800A356E7551800A3558D8B007EF09F064
:10120A0009EF09F017EF09F093BF15EF09F09351B1
:10121A0009E14B0E925DD8A015EF09F017EF09F01E
:10122A000DEF08F072517311D8A41EEF09F020EFE8
:10123A0009F031EF09F0B6A925EF09F027EF09F017
:10124A0031EF09F0000E9225D96E010E9321DA6E64
:10125A002E0EDF6E924B932B000E9225D96E010E45
:10126A009321DA6E000EDF6E650E7E19D8A440EF68
:10127A0009F042EF09F0F0EF04F0000E8B6F4F0E09
:10128A008A6F000E8A25D96E010E8B21DA6E000E46
:10129A00DF6E000E7B6F000E7A6F91BF59EF09F077
:1012AA0057EF09F061EF09F0000E7B6F010E7A6FBC
:1012BA00906D911FD8B0912B000E7D6F020E7C6F3E
:1012CA0092EF09F08A07D8A08B07000E8A25D96EFB
:1012DA00010E8B21DA6E90C001F091C002F0000E6F
:1012EA00046E0A0E036E44EC1AF00150300FDF6EE2
:1012FA0090C001F091C002F0000E046E0A0E036E57
:10130A00E2EC19F001C090F002C091F000017C07F4
:10131A00D8A07D077F07D8A0800790519111D8A443
:10132A0099EF09F09BEF09F067EF09F07DBFA8EF8D
:10133A0009F07D5106E17C05D8B0A6EF09F0A8EFC7
:10134A0009F067EF09F08A07D8A08B077A517B1159
:10135A00D8A4B2EF09F0B4EF09F0BAEF09F0000E21
:10136A006B6F2B0E6A6FBEEF09F0000E6B6F2D0EBE
:10137A006A6F000E8A25D96E010E8B21DA6E6AC059
:10138A00DFFF7F07D8A080078A07D8A08B07BF0E88
:10139A00356EFF0E366E3450376E386A3550372642
:1013AA003650382238500AE11A0E375CD8A0E0EFDE
:1013BA0009F0E3EF09F0010EE4EF09F0000E6E6F99
:1013CA006F6B6E516F11D8A4EDEF09F0EFEF09F0D2
:1013DA00F5EF09F0000E6D6F650E6C6FF9EF09F00D
:1013EA00000E6D6F450E6C6F000E8A25D96E010EC8
:1013FA008B21DA6E6CC0DFFF7F07D8A08007000E52
:10140A009225016E010E9321026E000E8A25036E4B
:10141A00010E8B21046EC3EC1BF0F0EF04F01200F6
:10142A000450800B0D6E045004240F6E03AE20EF9F
:10143A000AF022EF0AF023EF0AF00F800F50D8B417
:10144A0029EF0AF02BEF0AF040EF0AF00F28D8A490
:10145A0031EF0AF033EF0AF03BEF0AF0000E016EAB
:10146A00000E026E000E036E000E046E038E000E56
:10147A00046E48EF0AF0000E016E000E026E000EB6
:10148A00036E000E046E0850800B0E6E0D500E187F
:10149A00D8B452EF0AF054EF0AF055EF0AF00D8C67
:1014AA00085008240E6E07AE5DEF0AF05FEF0AF0EF
:1014BA0060EF0AF00E800E50D8B466EF0AF068EFBB
:1014CA000AF07DEF0AF00E28D8A46EEF0AF070EF4A
:1014DA000AF078EF0AF0000E056E000E066E000E96
:1014EA00076E000E086E078E000E086E85EF0AF072
:1014FA00000E056E000E066E000E076E000E086ED8
:10150A000F500E5CD8B08CEF0AF08EEF0AF0B5EFF0
:10151A000AF00DAC93EF0AF095EF0AF097EF0AF094
:10152A00800E0D1A0FC010F00EC00FF010C00EF092
:10153A0001C010F005C001F010C005F002C010F0A3
:10154A0006C002F010C006F003C010F007C003F096
:10155A0010C007F004C010F008C004F010C008F072
:10156A00000E106E0F500EC009F00A6A095E000ED6
:10157A000A5A0ABECAEF0AF00A5009E11A0E095CB1
:10158A00D8A0CAEF0AF0CCEF0AF003EF0BF0015033
:10159A00021003100410D8A4D5EF0AF0D8EF0AF00D
:1015AA00010ED9EF0AF0000E106E000E016E000E49
:1015BA00026E000E036E000E046E0EC00FF00CEFEA
:1015CA000BF010A0EBEF0AF0EDEF0AF0F3EF0AF0E0
:1015DA00D89010300109106EF5EF0AF0D890103249
:1015EA0001A0FAEF0AF0FCEF0AF0FDEF0AF0108E04
:1015FA00043404320332023201320F2A0E500F5CD5
:10160A00D8A00AEF0BF00CEF0BF0E6EF0AF00DBCD6
:10161A0011EF0BF013EF0BF053EF0BF00F50D8A4B0
:10162A0019EF0BF01BEF0BF025EF0BF0000E016E1C
:10163A00000E026E000E036E000E046E74EF0CF0C4
:10164A0005500126065002220750032208500422A0
:10165A0004A032EF0BF034EF0BF0E0EF0BF010A028
:10166A0039EF0BF03BEF0BF041EF0BF0D890103055
:10167A000109106E43EF0BF0D890103201A048EF29
:10168A000BF04AEF0BF04BEF0BF0108E04340432E0
:10169A000332023201320F2AE0EF0BF00550015CEF
:1016AA0006500258075003580450800A096E085021
:1016BA00800A0958D8B064EF0BF066EF0BF091EF8F
:1016CA000BF00150055C096E025006580A6E035071
:1016DA0007580B6E045008580C6EFF0E0924016E51
:1016EA00FF0E0A20026EFF0E0B20036EFF0E0C2067
:1016FA00046E800E0D1A106C1050D8A487EF0BF0F0
:10170A0089EF0BF099EF0BF0010E0126000E022271
:10171A000322042299EF0BF00550015E0650025A8B
:10172A000750035A0850045A0150021003100410BB
:10173A00D8A4A2EF0BF0A4EF0BF0D9EF0BF01050E6
:10174A00D8A4AAEF0BF0ACEF0BF0D9EF0BF0000E18
:10175A00016E000E026E000E036E000E046E74EF30
:10176A000CF0D890013602360336043610AEC0EFBC
:10177A000BF0C2EF0BF0C3EF0BF0018010A0C8EF23
:10178A000BF0CAEF0BF0CEEF0BF0D8801036D0EF8B
:10179A000BF0D89010360F50D8B4D6EF0BF0D8EF24
:1017AA000BF0D9EF0BF00F0603AEDEEF0BF0E0EF14
:1017BA000BF0B6EF0BF0000E0E6E10AEE7EF0BF06B
:1017CA00E9EF0BF001EF0CF010C009F07F0E0916DB
:1017DA00D8B4F2EF0BF0F4EF0BF0F8EF0BF0010EC8
:1017EA000E6E01EF0CF001A0FDEF0BF0FFEF0BF016
:1017FA0001EF0CF0F4EF0BF00E50D8B407EF0CF039
:10180A0009EF0CF034EF0CF0010E0126000E022253
:10181A000322042204A014EF0CF016EF0CF034EFAC
:10182A000CF001C009F002C00AF003C00BF004C0BA
:10183A000CF00C340C320B320A32093209C001F0B6
:10184A000AC002F00BC003F00CC004F00F28D8B491
:10185A0031EF0CF033EF0CF034EF0CF00F2A0F28B5
:10186A00D8B43AEF0CF03CEF0CF044EF0CF00F5008
:10187A00D8A442EF0CF044EF0CF056EF0CF0000E37
:10188A00016E000E026E000E036E000E046E0F5003
:10189A00D8A452EF0CF054EF0CF056EF0CF0000EF7
:1018AA000D6E0FA05BEF0CF05DEF0CF060EF0CF02B
:1018BA00038E61EF0CF0039ED8900F30046E0DAECC
:1018CA0069EF0CF06BEF0CF06CEF0CF0048E01C0BA
:1018DA0001F002C002F003C003F004C004F01200D9
:1018EA003CC0D9FF3DC0DAFFDECFF6FFDDCFF7FF00
:1018FA000800F550250AD8A485EF0CF087EF0CF004
:10190A0089EF0EF03CC0D9FF3DC0DAFFDE2A000E97
:10191A00DD22000E0001B36F000EB26FB2C0B6F046
:10192A00B3C0B7F0B469B5693CC0D9FF3DC0DAFFAE
:10193A00DECFF6FFDDCFF7FF0800F5502E0AD8A458
:10194A00A9EF0CF0ABEF0CF028EF0DF0000EB56F1D
:10195A00000EB46F3CC0D9FF3DC0DAFFDE2A000E8C
:10196A00DD223CC0D9FF3DC0DAFFDECFF6FFDDCF76
:10197A00F7FF0800F5502A0AD8A4C6EF0CF0C8EF02
:10198A000CF0E5EF0CF03CC0D9FF3DC0DAFFDE2ACF
:10199A00000EDD223EC0D9FF3FC0DAFFDFCF40F0A4
:1019AA00020EDE26DFCF41F0000EDD2240C0D9FF55
:1019BA0041C0DAFFDECFB4F0DDCFB5F028EF0DF08D
:1019CA003CC0D9FF3DC0DAFFDECF08F0DDCF09F019
:1019DA0068EC15F008C0B4F009C0B5F0FCEF0CF0E3
:1019EA003CC0D9FF3DC0DAFFDE2A000EDD22D00E50
:1019FA00406EFF0E416E3CC0D9FF3DC0DAFFDECF1C
:101A0A00F6FFDDCFF7FF0800F550426E436A4050FB
:101A1A0042264150432243500AE10A0E425CD8A0B2
:101A2A0019EF0DF01CEF0DF0010E1DEF0DF0000E79
:101A3A00446E456A44504510D8A426EF0DF028EFAD
:101A4A000DF0F5EF0CF03CC0D9FF3DC0DAFFDECF58
:101A5A00F6FFDDCFF7FF0800F550076E086A93EC32
:101A6A001BF007504C6E4C50D8B43EEF0DF040EFCF
:101A7A000DF078EF0DF03CC0D9FF3DC0DAFFDECFA4
:101A8A0040F0DDCF41F0010E4026000E412240C059
:101A9A00F6FF41C0F7FF0800F550076E086A93EC9D
:101AAA001BF007504D6E4D50D8B45EEF0DF060EF4D
:101ABA000DF078EF0DF03CC0D9FF3DC0DAFFDECF64
:101ACA0040F0DDCF41F0020E4026000E412240C018
:101ADA00F6FF41C0F7FF0800F550076E086A93EC5D
:101AEA001BF007504E6E660E4C18D8A47FEF0DF00F
:101AFA0081EF0DF0C1EF0DF03CC0D9FF3DC0DAFF18
:101B0A00DECFF6FFDDCFF7FF0800F5CF4FF03CC080
:101B1A00D9FF3DC0DAFFDE2A000EDD223EC0D9FF22
:101B2A003FC0DAFFDFCF40F0040EDE26DFCF41F000
:101B3A00000EDD2240C0D9FF41C0DAFFDECF48F0F7
:101B4A00DECF49F0DECF4AF0DECF4BF03AC02EF0BE
:101B5A003BC02FF048C030F049C031F04AC032F0E3
:101B6A004BC033F04FC034F03DEC04F02EC03AF0D5
:101B7A002FC03BF0A4EF0EF04C0E016E000E026E69
:101B8A00750E036E080E046E000E066E020E056ECA
:101B9A00AFEC18F001500210D8A4D6EF0DF0D8EF30
:101BAA000DF053EF0EF03CC0D9FF3DC0DAFFDECF97
:101BBA0040F0DDCF41F0010E4026000E412240C028
:101BCA00F6FF41C0F7FF0800F5CF4FF0BF0E406E99
:101BDA00FF0E416E3CC0D9FF3DC0DAFFDECFF6FFF3
:101BEA00DDCFF7FF0800F550426E436A40504226A7
:101BFA004150432243500AE11A0E425CD8A008EF32
:101C0A000EF00BEF0EF0010E0CEF0EF0000E466E0A
:101C1A00476A46504710D8B415EF0EF017EF0EF08A
:101C2A0031EF0EF03EC0D9FF3FC0DAFFDFCF40F000
:101C3A00040EDE26DFCF41F0000EDD2240C0D9FFC0
:101C4A0041C0DAFFDECF48F0DECF49F0DECF4AF0FE
:101C5A00DECF4BF049EF0EF03EC0D9FF3FC0DAFFAE
:101C6A00DFCF40F0040EDE26DFCF41F0000EDD228A
:101C7A0040C0D9FF41C0DAFFDECF48F0DECF49F0DD
:101C8A00DECF4AF0DECF4BF0020E3CC0D9FF3DC09A
:101C9A00DAFFDE26000EDD22ABEF0DF03CC0D9FFE5
:101CAA003DC0DAFFDECFF6FFDDCFF7FF0800F550C3
:101CBA00250AD8A463EF0EF065EF0EF07CEF0EF064
:101CCA003CC0D9FF3DC0DAFFDE2A000EDD22000E3D
:101CDA00026E250E016E3AC003F03BC004F01AEC06
:101CEA0019F0000E3B6E010E3A6EA4EF0EF03CC0E6
:101CFA00D9FF3DC0DAFFDE2A000EDD22000E3B6E60
:101D0A00000E3A6EA4EF0EF03CC0D9FF3DC0DAFFD8
:101D1A00DECFF6FFDDCFF7FF0800F550016E026A4D
:101D2A003AC003F03BC004F01AEC19F03CC0D9FFEA
:101D3A003DC0DAFFDE2A000EDD2276EF0EF0120039
:101D4A000450800B0D6E04500424136E03AEB0EFE2
:101D5A000EF0B2EF0EF0B3EF0EF013801350D8B4BA
:101D6A00B9EF0EF0BBEF0EF0CEEF0EF01328D8A4A9
:101D7A00C1EF0EF0C3EF0EF0CBEF0EF0000E016EC6
:101D8A00000E026E000E036E000E046E038ED6EF76
:101D9A000EF0000E016E000E026E000E036E000EB3
:101DAA00046E0850800B0D1A08500824126E07AEF4
:101DBA00E1EF0EF0E3EF0EF0E4EF0EF012801250B6
:101DCA00D8B4EAEF0EF0ECEF0EF0FFEF0EF01228A7
:101DDA00D8A4F2EF0EF0F4EF0EF0FCEF0EF0000EC6
:101DEA00056E000E066E000E076E000E086E078E58
:101DFA0007EF0FF0000E056E000E066E000E076E5E
:101E0A00000E086E1250D8B40DEF0FF00FEF0FF05E
:101E1A0017EF0FF01350D8A415EF0FF017EF0FF0CC
:101E2A0021EF0FF0000E016E000E026E000E036E1F
:101E3A00000E046EB9EF10F007500102F3CF18F04C
:101E4A00F4CF19F018500E6E0F6A106A116A195001
:101E5A00146E156A166A176A06500202F3CF18F052
:101E6A00F4CF19F018500E26000E0F22102211225C
:101E7A0019501426000E15221622172205500302A5
:101E8A00F3CF18F0F4CF19F018500E26000E0F22D7
:101E9A001022112219501426000E1522162217227A
:101EAA0010C011F00FC010F00EC00FF00E6A0550EE
:101EBA000202F3CF18F0F4CF19F018500E26195079
:101ECA000F22000E1022000E112206500102F3CF3B
:101EDA0018F0F4CF19F018500E2619500F22000EE0
:101EEA001022000E112210C011F00FC010F00EC007
:101EFA000FF00E6A05500102F3CF18F0F4CF19F073
:101F0A0018500E2619500F22000E1022000E112210
:101F1A0007500202F3CF18F0F4CF19F01850142624
:101F2A0019501522000E1622000E1722065003021F
:101F3A00F3CF18F0F4CF19F01850142619501522BF
:101F4A00000E1622000E172207500302F3CF18F0D4
:101F5A00F4CF19F01850096E19500A6E0B6A0C6A00
:101F6A000BC00CF00AC00BF009C00AF0096A09504C
:101F7A0014260A5015220B5016220C5017220EC096
:101F8A0009F00FC00AF010C00BF011C00CF0190EC6
:101F9A00D4EF0FF0D8900C320B320A320932E82E05
:101FAA00CFEF0FF0095014260A5015220B501622B3
:101FBA000C50172210C011F00FC010F00EC00FF015
:101FCA000E6A125013C009F00A6A0926000E0A2284
:101FDA00820E0924186EFF0E0A20196E0AEF10F0FD
:101FEA00D890143615361636173611AEFFEF0FF0A5
:101FFA0001EF10F002EF10F01480D8900E360F3671
:10200A00103611361806D8A0190616AE0FEF10F0C2
:10201A0011EF10F0F5EF0FF0000E126E11AE18EF7F
:10202A0010F01AEF10F03EEF10F0FF0E0E14096ECA
:10203A00FF0E0F140A6EFF0E10140B6E7F0E111492
:10204A000C6E09500A100B100C10D8B42FEF10F0B8
:10205A0031EF10F035EF10F0010E126E3EEF10F076
:10206A0014A03AEF10F03CEF10F03EEF10F031EF11
:10207A0010F01250D8B444EF10F046EF10F06AEFA7
:10208A0010F0010E1426000E15221622172217A090
:10209A0051EF10F053EF10F06AEF10F014C009F08E
:1020AA0015C00AF016C00BF017C00CF00C340C3235
:1020BA000B320A32093209C014F00AC015F00BC0FB
:1020CA0016F00CC017F0184A192A19BE75EF10F04D
:1020DA00195008E11828D8A075EF10F077EF10F022
:1020EA0081EF10F0000E146E000E156E800E166E43
:1020FA007F0E176EAFEF10F019BE8EEF10F0195069
:10210A0006E11804D8B08CEF10F08EEF10F09AEFB9
:10211A0010F0000E146E000E156E000E166E000EF4
:10212A00176E000E0D6EAFEF10F018C013F0FF0E11
:10213A001416FF0E15167F0E1616000E171613A08C
:10214A00A9EF10F0ABEF10F0ACEF10F0168ED890AC
:10215A001330176E0D50171214C001F015C002F09B
:10216A0016C003F017C004F012000450800B116E61
:10217A0004500424186E03AEC5EF10F0C7EF10F038
:10218A00C8EF10F018801850D8B4CEEF10F0D0EF86
:10219A0010F0E5EF10F01828D8A4D6EF10F0D8EF19
:1021AA0010F0E0EF10F0000E016E000E026E000E4D
:1021BA00036E000E046E038E000E046EEDEF10F037
:1021CA00000E016E000E026E000E036E000E046E0B
:1021DA000850800B111A08500824196E07AEF8EF40
:1021EA0010F0FAEF10F0FBEF10F019801950D8B484
:1021FA0001EF11F003EF11F018EF11F01928D8A42C
:10220A0009EF11F00BEF11F013EF11F0000E056E4C
:10221A00000E066E000E076E000E086E078E000E88
:10222A00086E20EF11F0000E056E000E066E000E0D
:10223A00076E000E086E0550061007100810D8A485
:10224A0029EF11F02BEF11F043EF11F0000E016EA0
:10225A00000E026E000E036E000E046E800E031254
:10226A007F0E04121150041201C001F002C002F0E4
:10227A0003C003F004C004F086EF12F01850D8A48B
:10228A0049EF11F04BEF11F055EF11F0000E016E0E
:10229A00000E026E000E036E000E046E86EF12F040
:1022AA00195018C009F00A6A095E000E0A5A7F0E10
:1022BA000924126E000E0A20136E01C00DF002C02E
:1022CA000EF003C00FF004C010F0000E016E000EF5
:1022DA00026E000E036E000E046E000E146E000EE7
:1022EA00156E000E166E000E176E000E196EB6EF02
:1022FA0011F01950D8B484EF11F086EF11F09DEF68
:10230A0011F0D8900D360E360F361036D8900136A9
:10231A0002360336043617AE95EF11F097EF11F037
:10232A0098EF11F00180D890143615361636173604
:10233A0005500D5C06500E5807500F58085010589B
:10234A00D8A0AAEF11F0ACEF11F0B5EF11F0178C8D
:10235A0005500D5E06500E5A07500F5A0850105A73
:10236A00192A190E1964BCEF11F0BEEF11F07EEFB5
:10237A0011F00D500E100F101010D8B4C7EF11F055
:10238A00C9EF11F0E1EF11F01480E1EF11F0D890EC
:10239A00013602360336043617AED6EF11F0D8EFFF
:1023AA0011F0D9EF11F00180D8901436153616368F
:1023BA0017361206D8A0130603AEE6EF11F0E8EFBF
:1023CA0011F0CCEF11F0000E196E17AEEFEF11F00D
:1023DA00F1EF11F015EF12F0FF0E1414096EFF0E53
:1023EA0015140A6EFF0E16140B6E7F0E17140C6E60
:1023FA0009500A100B100C10D8B406EF12F008EFAF
:10240A0012F00CEF12F0010E196E15EF12F001A086
:10241A0011EF12F013EF12F015EF12F008EF12F0AD
:10242A001950D8B41BEF12F01DEF12F041EF12F061
:10243A00010E0126000E02220322042204A028EF24
:10244A0012F02AEF12F041EF12F001C009F002C0B7
:10245A000AF003C00BF004C00CF00C340C320B323F
:10246A000A32093209C001F00AC002F00BC003F0B7
:10247A000CC004F0124A132A13BE4CEF12F0135088
:10248A0008E11228D8A04CEF12F04EEF12F059EFE3
:10249A0012F0000E136E1268000E016E000E026E2C
:1024AA00000E036E000E046E13BE66EF12F0135098
:1024BA0006E11204D8B064EF12F066EF12F074EF7E
:1024CA0012F0000E136E000E126E000E016E000E58
:1024DA00026E000E036E000E046E000E116E12C024
:1024EA0018F018A07BEF12F07DEF12F080EF12F0D7
:1024FA00038E81EF12F0039ED8901830046E37EFE6
:10250A0011F01200A4C02AF0A5C02BF0A6C02CF02E
:10251A00A7C02DF01AC02AF01BC02BF01CC02CF04B
:10252A001DC02DF0810E1E6EFF0E1F6E2AC020F0F8
:10253A002BC021F02CC022F02DC023F0180EABEFD7
:10254A0012F0D8902332223221322032E82EA6EF1E
:10255A0012F020501E24286E000E1F20296E29BE5C
:10256A00C0EF12F0295009E1170E285CD8A0C0EF7D
:10257A0012F0C2EF12F0CCEF12F01AC01AF01BC020
:10258A001BF01CC01CF01DC01DF08FEF13F029BEFC
:10259A00D1EF12F0D3EF12F043EF13F028C01EF080
:1025AA00FF0E1F6EFF0E206E7F0E216E000E226E32
:1025BA001E66E2EF12F0EAEF12F0223422322132E2
:1025CA0020321F321E2EDDEF12F01FC024F020C071
:1025DA0025F021C026F022C027F024502A141E6EAE
:1025EA0025502B141F6E26502C14206E27502D14A4
:1025FA00216E1E501F1020102110D8A407EF13F0CF
:10260A0009EF13F00BEF13F0C2EF12F02AC01EF01D
:10261A002BC01FF02CC020F02DC021F0200E1BEF84
:10262A0013F0D890213220321F321E32E82E16EFD4
:10263A0013F01E501F1020102110D8B427EF13F0EA
:10264A0029EF13F031EF13F024502A2625502B22BC
:10265A0026502C2227502D22241C1E6E251C1F6E4C
:10266A00261C206E271C216E1E502A161F502B1660
:10267A0020502C1621502D1687EF13F02AC01EF079
:10268A002BC01FF02CC020F02DC021F0200E53EFDC
:10269A0013F0D890213220321F321E32E82E4EEF2C
:1026AA0013F01E501F1020102110D8A45FEF13F052
:1026BA0061EF13F06BEF13F0000E2A6E000E2B6E13
:1026CA00000E2C6E000E2D6E87EF13F0D8902A3470
:1026DA001E6E2B341F6E2C34206E2D34216E1E502C
:1026EA001F1020102110D8B47DEF13F07FEF13F0E4
:1026FA0087EF13F0000E2A6E000E2B6E800E2C6EE2
:10270A00BF0E2D6E2AC01AF02BC01BF02CC01CF075
:10271A002DC01DF01200B00E0F6E040E106E000ECA
:10272A00116E000E126E2AEC1BF0A7EC1DF0000EC3
:10273A00036E000E026E000E056E000E046E8FEC24
:10274A001DF0010E026E080E036EF1EC1AF0030E74
:10275A000001A36F8A0EA26F550EE82EFED7A22F94
:10276A00FCD7A32FFAD700D0000E036E010E026E1B
:10277A00000E056E000E046E8FEC1DF0120E026E36
:10278A00080E036EF1EC1AF0400E0001A36F6A0EF8
:10279A00A26F970EE82EFED7A22FFCD7A32FFAD747
:1027AA0000D0010E01EC1DF0000E036E000E026E49
:1027BA00000E056E000E046E8FEC1DF0340E026ED4
:1027CA00080E036EF1EC1AF0030E0001A36F8A0ED5
:1027DA00A26F550EE82EFED7A22FFCD7A32FFAD749
:1027EA0000D0000E036E010E026E000E056E000E82
:1027FA00046E8FEC1DF0450E026E080E036EF1ECAE
:10280A001AF0400E0001A36F6A0EA26F970EE82E0F
:10281A00FED7A22FFCD7A32FFAD700D0010E01ECC6
:10282A001DF0000E0001AC6F000EAD6F000EAE6F12
:10283A00000EAF6F010E01EC1DF0820E0001A26FB7
:10284A00DD0EE82EFED7A22FFCD700D0000E036EB5
:10285A00000E026E000E056E000E046E8FEC1DF067
:10286A00230E026E080E036EF1EC1AF0030E00013D
:10287A00A36F8A0EA26F550EE82EFED7A22FFCD7A1
:10288A00A32FFAD700D0DFEC1DF00FC0ACF010C0B8
:10289A00ADF011C0AEF012C0AFF0820E0001A26F0F
:1028AA00DD0EE82EFED7A22FFCD700D0000E036E55
:1028BA00010E026E000E056E000E046E8FEC1DF006
:1028CA00B80E586E000E596E560E5A6E080E5B6E92
:1028DA00ACC05CF0ADC05DF0AEC05EF0AFC05FF002
:1028EA001EEC1CF0B80E026E000E036EF1EC1AF02C
:1028FA00030E0001A36F8A0EA26F550EE82EFED7B3
:10290A00A22FFCD7A32FFAD700D016EF14F000EFAE
:10291A0000F0096E0950D8B495EF14F097EF14F04F
:10292A00B9EF14F004BE9EEF14F09CEF14F0B9EF67
:10293A0014F001C005F002C006F003C007F004C09D
:10294A0008F0051E061E071E081E052A000E06228E
:10295A000722082205C00BF006C00CF007C00DF0D4
:10296A0008C00EF0C1EF14F001C00BF002C00CF069
:10297A0003C00DF004C00EF0015002100310041041
:10298A00D8A4CAEF14F0CCEF14F0D6EF14F0000E6E
:10299A00016E000E026E000E036E000E046E67EFEB
:1029AA0015F0960E0A6EE0EF14F00A2AD8900E324D
:1029BA000D320C320B32000E0B14056E000E0C1485
:1029CA00066E000E0D14076EFE0E0E14086E0550EC
:1029DA00061007100810D8A4F5EF14F0F7EF14F05A
:1029EA00DAEF14F005EF15F00A2A010E0B26000E95
:1029FA000C220D220E22D8900E320D320C320B32DE
:102A0A00000E0B14056E000E0C14066E000E0D144B
:102A1A00076EFF0E0E14086E0550061007100810F8
:102A2A00D8A41AEF15F01CEF15F0F9EF14F024EF03
:102A3A0015F00A06D8900B360C360D360E360DBE3A
:102A4A0029EF15F02BEF15F033EF15F0020E0A609F
:102A5A0031EF15F033EF15F01EEF15F00AB038EF2D
:102A6A0015F03AEF15F03BEF15F00D9ED8900A32AB
:102A7A000AC005F0066A076A086A05C008F0076A0C
:102A8A00066A056A05500B1206500C1207500D1201
:102A9A0008500E120950D8B455EF15F057EF15F03B
:102AAA005FEF15F004BE5EEF15F05CEF15F05FEF17
:102ABA0015F00E8E0BC001F00CC002F00DC003F031
:102ACA000EC004F01200000E166E000E156E000EF7
:102ADA000F6E000E0E6E74EF15F0084A092A010EE9
:102AEA00146E08C0F6FF09C0F7FF0800F550200A67
:102AFA00D8B482EF15F084EF15F0A1EF15F0F70EB8
:102B0A000A6EFF0E0B6E08C0F6FF09C0F7FF080039
:102B1A00F5500C6E0D6A0A500C260B500D220D5002
:102B2A0009E1050E0C5CD8A09DEF15F09FEF15F09A
:102B3A00A1EF15F0000E146E14C010F0116A1050B7
:102B4A001110D8A4ABEF15F0ADEF15F072EF15F038
:102B5A00B7EF15F0000E0F6E010E0E6E084A092A25
:102B6A00ECEF15F008C0F6FF09C0F7FF0800F550B2
:102B7A000A6E0B6A0B50000AD8B4C6EF15F0ECEFD8
:102B8A0015F00A502B0AD8B4B3EF15F0060AD8B4D8
:102B9A00AFEF15F0ECEF15F015C001F016C002F01A
:102BAA00000E046E0A0E036EBBEC1DF008C0F6FFA1
:102BBA0009C0F7FF0800F550015E000E025A300EF8
:102BCA000124156E000E0220166EB3EF15F0D00E1A
:102BDA000A6EFF0E0B6E08C0F6FF09C0F7FF080069
:102BEA00F5500C6E0D6A0A500C260B500D220D5032
:102BFA000AE10A0E0C5CD8A005EF16F008EF16F0F1
:102C0A00010E09EF16F0000E126E136A125013101D
:102C1A00D8A412EF16F014EF16F0D1EF15F00E50FB
:102C2A000F10D8A41BEF16F01DEF16F02BEF16F0BD
:102C3A0015C00AF016C00BF00A1E0B1E0A4A0B2A10
:102C4A000AC008F00BC009F02FEF16F015C008F003
:102C5A0016C009F01200000E0A6E08BE39EF16F00F
:102C6A0037EF16F043EF16F0081E071E061E056C16
:102C7A00000E062207220822010E0A6E04BE4AEF3F
:102C8A0016F048EF16F054EF16F0041E031E021E4B
:102C9A00016C000E022203220422010E0A1A000EFF
:102CAA000B6E000E0C6E000E0D6E000E0E6E0550B1
:102CBA00061007100810D8B465EF16F067EF16F083
:102CCA009DEF16F0010E096E71EF16F0D8900536D9
:102CDA00063607360836092A08AE76EF16F078EF78
:102CEA0016F06BEF16F0D8900B360C360D360E3602
:102CFA000550015C06500258075003580850045802
:102D0A00D8A08AEF16F08CEF16F095EF16F0055062
:102D1A00015E0650025A0750035A0850045A0B80A3
:102D2A00D8900832073206320532092E78EF16F0AB
:102D3A000A50D8B4A3EF16F0A5EF16F0ADEF16F0CF
:102D4A000E1E0D1E0C1E0B6C000E0C220D220E22E6
:102D5A000BC001F00CC002F00DC003F00EC004F06D
:102D6A001200033404340A6E0A50D8A4BFEF16F0D6
:102D7A00C1EF16F0CBEF16F0000E016E000E026ED8
:102D8A00000E036E000E046E38EF17F001C005F056
:102D9A0002C006F003C007F004C008F0200EDBEF03
:102DAA0016F0D8900832073206320532E82ED6EFEE
:102DBA0016F00550096E038EFF0E0116FF0E02165D
:102DCA00FF0E0316000E0416960E0A5E0ABEF2EFF6
:102DDA0016F0F0EF16F008EF17F00A50800A970F76
:102DEA00D8B0FAEF16F0FCEF16F0FEEF16F0C1EFCE
:102DFA0016F0D89004320332023201320A3EFEEF54
:102E0A0016F020EF17F01F0E0A640EEF17F010EFFE
:102E1A0017F018EF17F0C1EF16F0D8900136023606
:102E2A00033604360A060A50D8A41EEF17F020EF1C
:102E3A0017F012EF17F00950D8B426EF17F028EF61
:102E4A0017F030EF17F0041E031E021E016C000E6D
:102E5A0002220322042201C001F002C002F003C0D0
:102E6A0003F004C004F01200000E1A14226E000EC1
:102E7A001B14236E800E1C14246E7F0E1D14256EE7
:102E8A002250231024102510D8A44EEF17F050EF2B
:102E9A0017F058EF17F0000E1A6E000E1B6E000E98
:102EAA001C6E000E1D6E000E1E14226E000E1F14E4
:102EBA00236E800E2014246E7F0E2114256E22505C
:102ECA00231024102510D8A46DEF17F06FEF17F018
:102EDA0077EF17F0000E1E6E000E1F6E000E206EAA
:102EEA00000E216E1DAE7CEF17F07EEF17F087EF14
:102EFA0017F01A6C1B1ED8B01B2A1C1ED8B01C2A2D
:102F0A00800E1D5621AE8CEF17F08EEF17F097EF5B
:102F1A0017F01E6C1F1ED8B01F2A201ED8B0202AF8
:102F2A00800E2156000E1A1A000E1B1A000E1C1AC9
:102F3A00800E1D1A000E1E1A000E1F1A000E201AED
:102F4A00800E211A1E501A5C1F501B5820501C5804
:102F5A0021501D58D8B0B4EF17F0B6EF17F0B9EFFB
:102F6A0017F0D890BAEF17F0D8801200A8C00BF06B
:102F7A00A9C00CF0AAC00DF0ABC00EF001C00BF056
:102F8A0002C00CF003C00DF004C00EF00BC005F037
:102F9A000CC006F00DC007F00EC008F0180EDBEFEB
:102FAA0017F0D8900832073206320532E82ED6EFEB
:102FBA0017F00550096E0A6A09500A10D8A4E8EFFA
:102FCA0017F0EAEF17F00AEF18F0D8900B34056EF5
:102FDA000C34066E0D34076E0E34086E055006105A
:102FEA0007100810D8A4FCEF17F0FEEF17F004EF53
:102FFA0018F0000E026E020E016E39EF18F0000E84
:10300A00026E030E016E39EF18F009280A10D8A4CF
:10301A0011EF18F013EF18F035EF18F00BC005F0A8
:10302A000CC006F00DC007F00EC008F0090ED890CB
:10303A000536063607360836E82E1CEF18F0055016
:10304A00061007100810D8B42DEF18F030EF18F05A
:10305A00010E31EF18F0000E016E026A39EF18F016
:10306A00000E026E040E016E1200056EF00E83163B
:10307A00F00E9516959C959A95988C9C8C9A8C989E
:10308A00FDEC1DF0300E01EC1DF000D000D000F078
:10309A00300E01EC1DF000D000D000F0320E01EC31
:1030AA001DF0BCEC1CF00009D8A45EEF18F060EF2C
:1030BA0018F056EF18F0BCEC1CF00009D8A468EF21
:1030CA0018F06AEF18F060EF18F0055001EC1DF0E7
:1030DA00BCEC1CF00009D8A475EF18F077EF18F0D3
:1030EA006DEF18F0080E01EC1DF0BCEC1CF00009A5
:1030FA00D8A482EF18F084EF18F07AEF18F00F0EC8
:10310A0001EC1DF0BCEC1CF00009D8A48FEF18F0FC
:10311A0091EF18F087EF18F0010E01EC1DF0BCECEE
:10312A001CF00009D8A49CEF18F09EEF18F094EF59
:10313A0018F0040E01EC1DF0BCEC1CF00009D8A438
:10314A00A9EF18F0ABEF18F0A1EF18F0800EF1EC30
:10315A001BF0120001C008F002C009F003C00AF017
:10316A0004C00BF00506D8A00606052806E10628C5
:10317A00D8A4C2EF18F0C4EF18F0D1EF18F0000E7F
:10318A00026E000E016E19EF19F0084A092A0A4A5E
:10319A000B2A0506D8A0060608C0D9FF09C0DAFF1F
:1031AA00DF50D8B4DBEF18F0DDEF18F008EF19F0B4
:1031BA000AC0F6FF0BC0F7FF0800F5500009D8B4A3
:1031CA00E9EF18F0EBEF18F008EF19F005500610C8
:1031DA00D8B4F2EF18F0F4EF18F008EF19F008C0BD
:1031EA00D9FF09C0DAFFDF50076E0AC0F6FF0BC02D
:1031FA00F7FF0800F5500718D8B406EF19F008EFE2
:10320A0019F0CAEF18F008C0D9FF09C0DAFFDF5079
:10321A00076E0AC0F6FF0BC0F7FF0800F550075CFF
:10322A00016E026AD8A00206120003500410D8B434
:10323A0021EF19F023EF19F02CEF19F003500410C5
:10324A00D8A42AEF19F02CEF19F031EF19F0015038
:10325A0005EC1EF07EEF19F020EE04F00350D9269B
:10326A000450DA22DE50DE10D8B43EEF19F040EFF7
:10327A0019F05BEF19F020EE04F00350D926045040
:10328A00DA2210EE02F00350E1260450E222DE5068
:10329A00E65CE650800A096EDE50800A0958D8B00A
:1032AA0059EF19F05BEF19F07EEF19F020EE02F0FA
:1032BA000350D9260450DA22DECF05F0DDCF06F01E
:1032CA0003C0D9FF04C0DAFFDECF07F0DDCF08F074
:1032DA0005500724D96E06500820DA6E01C0DFFFB8
:1032EA0020EE02F00350D9260450DA22DE2A000E1C
:1032FA00DD2212000001B6A185EF19F087EF19F05F
:10330A0091EF19F013C00AF014C00BF011C00CF0C1
:10331A0012C00DF0DFEC1CF016BE96EF19F098EF14
:10332A0019F09EEF19F015C01AF016C01BF0A2EFA3
:10333A0019F0000E1B6E000E1A6E000E196E000EAA
:10334A00186EB4EF19F0000E026E200E016E11C055
:10335A0003F012C004F01AEC19F0184A192A1A508C
:10336A00185C1950800A176E1B50800A1758D8A08B
:10337A00C1EF19F0C3EF19F0A8EF19F00001B6B1C7
:10338A00C9EF19F0CBEF19F0D5EF19F013C00AF015
:10339A0014C00BF011C00CF012C00DF0DFEC1CF0E1
:1033AA0013C001F014C002F074EC1DF01A5001248D
:1033BA00116E1B500220126E1200000E066E04BE21
:1033CA00EBEF19F0E9EF19F0F1EF19F0036C041EB5
:1033DA00D8B0042A010E066E02BEF8EF19F0F6EF15
:1033EA0019F0FEEF19F0016C021ED8B0022A010E84
:1033FA00061A000E086E000E076E03500410D8B4A9
:10340A0009EF1AF00BEF1AF033EF1AF0010E056EFE
:10341A0013EF1AF0D89003360436052A04AE18EFD3
:10342A001AF01AEF1AF00FEF1AF0D890073608368A
:10343A000350015C04500258D8A026EF1AF028EF76
:10344A001AF02DEF1AF00350015E0450025A078059
:10345A00D89004320332052E1AEF1AF00650D8B467
:10346A0039EF1AF03BEF1AF03FEF1AF0076C081E1B
:10347A00D8B0082A07C001F008C002F01200000EF6
:10348A00066E02BE4DEF1AF04BEF1AF053EF1AF028
:10349A00016C021ED8B0022A010E066E04BE5AEF53
:1034AA001AF058EF1AF05EEF1AF0036C041ED8B047
:1034BA00042A03500410D8B465EF1AF067EF1AF023
:1034CA008BEF1AF0010E056E6FEF1AF0D8900336E3
:1034DA000436052A04AE74EF1AF076EF1AF06BEF91
:1034EA001AF00350015C04500258D8A07FEF1AF07A
:1034FA0081EF1AF085EF1AF00350015E0450025A68
:10350A00D89004320332052E76EF1AF00650D8B45A
:10351A0091EF1AF093EF1AF097EF1AF0016C021E6E
:10352A00D8B0022A01C001F002C002F01200000E57
:10353A000114096E000E02140A6E800E03140B6E3B
:10354A007F0E04140C6E09500A100B100C10D8A42C
:10355A00B1EF1AF0B3EF1AF0BBEF1AF0000E016EDA
:10356A00000E026E000E036E000E046E000E0514AD
:10357A00096E000E06140A6E800E07140B6E7F0E7B
:10358A0008140C6E09500A100B100C10D8A4D0EFB6
:10359A001AF0D2EF1AF0DAEF1AF0000E056E000EEA
:1035AA00066E000E076E000E086E055001180FE138
:1035BA00065002180CE10750031809E108500418D4
:1035CA00D8B4EAEF1AF0ECEF1AF0EFEF1AF0D8904D
:1035DA00F0EF1AF0D880120011EF1BF0BCEC1CF0CF
:1035EA000009D8A4FBEF1AF0FDEF1AF0F3EF1AF076
:1035FA0002C0F6FF03C0F7FFF86A070EF76403D0AC
:10360A000800F55005D0F6CFE9FFF7CFEAFFEF50F3
:10361A0070EC1CF0024A032A02C0F6FF03C0F7FF4F
:10362A00F86A070EF76403D00800F55005D0F6CF04
:10363A00E9FFF7CFEAFFEF500009D8A427EF1BF004
:10364A0029EF1BF0F3EF1AF01200949C948E0FC02E
:10365A0005F010C006F011C007F012C008F0000E05
:10366A00016E2D0E026E310E036E010E046E30ECE9
:10367A0016F001C013F002C014F003C015F004C024
:10368A0016F013C001F014C002F015C003F016C002
:10369A0004F0400E056E000E066E000E076E000E58
:1036AA00086E30EC16F00104AF6EAC94AC98AB8E99
:1036BA00AC9CAC8AAB9CAB88120052C056F053C08B
:1036CA0057F0000E0001B16F000EB06F80EF1BF0D3
:1036DA0050C03AF051C03BF0560E3C6E000E3D6EA3
:1036EA0054C03EF055C03FF075EC0CF03A50000162
:1036FA00B0273B50B12356C0F6FF57C0F7FF08006A
:10370A00F5500009D8A48CEF1BF08EEF1BF06DEF7B
:10371A001BF0B0C050F0B1C051F01200BF0E096EDC
:10372A00FF0E0A6E07C00BF008C00CF009500B26FA
:10373A000A500C220C500AE11A0E0B5CD8A0A8EF12
:10374A001BF0ABEF1BF0010EACEF1BF0000E0D6E81
:10375A000E6A0D500E10D8B4B5EF1BF0B7EF1BF080
:10376A00BEEF1BF0200E0710076E0850086EC2EF5E
:10377A001BF007C007F008C008F0120003C007F0EA
:10378A0004C008F001C009F002C00AF00750056E33
:10379A000850066E074A082A05C0F6FF06C0F7FF5A
:1037AA00F86A09C0D9FF0AC0DAFF094A0A2A070ECD
:1037BA00F76403D00800F55005D0F6CFE9FFF7CF3C
:1037CA00EAFFEF50DF6EDF50D8A4EEEF1BF0F0EF08
:1037DA001BF0CBEF1BF01200046EF00E9516F00EE4
:1037EA0083160450016E026A800E0112000E021244
:1037FA00040E036E023402320132032EFFEF1BF075
:10380A0001500F0B83128C9C8C9AF0EC1DF08C8863
:10381A00F0EC1DF08C98F00E831604500F0B8312F7
:10382A00F0EC1DF08C88F0EC1DF08C980F0E9512C0
:10383A0012005C0E00019A6F000E9B6F58C09CF03C
:10384A0059C09DF0000E9F6F000E9E6F000EA16F73
:10385A00000EA06F9C0E506E000E516E5AC052F0B0
:10386A005BC053F09A0E546E000E556E62EC1BF05C
:10387A0000019E515824D96E9F515920DA6E000ECC
:10388A00DF6E1200010E076E200E01180210D8B466
:10389A0051EF1CF053EF1CF06CEF1CF0F70E036EA7
:1038AA00FF0E046E01C005F002C006F003500526A3
:1038BA0004500622065009E1050E055CD8A068EFFF
:1038CA001CF06AEF1CF06CEF1CF0000E076E07C0CC
:1038DA0001F0026A1200016EBCEC1CF00009D8A4C7
:1038EA0079EF1CF07BEF1CF071EF1CF0F00E9516CF
:1038FA00F00E831601380F0B0F0B83128C8A8C9CE7
:10390A00F0EC1DF08C88F0EC1DF08C98F00E83160C
:10391A0001500F0B8312F0EC1DF08C88F0EC1DF0B7
:10392A008C980F0E95121200000E1E1A000E1F1A06
:10393A00000E201A800E211A1AC001F01BC002F0D4
:10394A001CC003F01DC004F01EC005F01FC006F025
:10395A0020C007F021C008F015EC0AF001C01AF0E7
:10396A0002C01BF003C01CF004C01DF012008C8CB6
:10397A008C9AF0EC1DF08C88F0EC1DF083A6C8EF51
:10398A001CF0CAEF1CF0D5EF1CF08C98F0EC1DF07F
:10399A008C88F0EC1DF08C988C9C010EDEEF1CF0EC
:1039AA008C98F0EC1DF08C88F0EC1DF08C988C9CB7
:1039BA00000E1200000E106E000E0F6EF0EF1CF0DB
:1039CA000EC001F0026A0CC003F00DC004F01AEC3C
:1039DA0019F00F4A102A0F500A24D96E10500B20E2
:1039EA00DA6EDF500E6E0E50D8A4FEEF1CF000EF18
:1039FA001DF0E5EF1CF01200016EF00E9516F00EA8
:103A0A00831601380F0B0F0B83128C9C8C9AF0ECE7
:103A1A001DF08C88F0EC1DF08C98F00E8316015086
:103A2A000F0B8312F0EC1DF08C88F0EC1DF08C98D3
:103A3A000F0E95121200BF0E036EFF0E046E01C028
:103A4A0005F002C006F0035005260450062206506F
:103A5A000AE11A0E055CD8A035EF1DF038EF1DF00B
:103A6A00010E39EF1DF0000E016E026A12000150BC
:103A7A00021003100410D8B445EF1DF047EF1DF0F3
:103A8A004FEF1DF0000E011A000E021A000E031A63
:103A9A00800E041A01C001F002C002F003C003F054
:103AAA0004C004F01200D00E036EFF0E046E01C0B3
:103ABA0005F002C006F003500526045006220650FF
:103ACA000AE10A0E055CD8A06DEF1DF070EF1DF03B
:103ADA00010E71EF1DF0000E016E026A120001C0A4
:103AEA0003F002C004F07CEF1DF0014A022A01C073
:103AFA00D9FF02C0DAFFDF50D8A486EF1DF088EFA5
:103B0A001DF07AEF1DF00350015C016E045002585B
:103B1A00026E120003BE9AEF1DF0035008E1020480
:103B2A00D8A09AEF1DF09CEF1DF0A2EF1DF00450F3
:103B3A00C00F01EC1DF0A6EF1DF00450800F01EC40
:103B4A001DF01200280E3AEC18F0BCEC1CF000092B
:103B5A00D8A4B2EF1DF0B4EF1DF0AAEF1DF0060EC7
:103B6A0001EC1DF00C0E01EC1DF0120001500302D5
:103B7A00F3CF05F0F4CF06F001500402F350062605
:103B8A0002500302F350062605C001F006C002F0F7
:103B9A00120001EE00F0500EEE6AE806FDE100EEBA
:103BAA00A4F0280EEE6AE806FDE1000EF86E0001A8
:103BBA0090EF13F0AE50016E026A036A046A000EB7
:103BCA008EEC14F001C00FF002C010F003C011F027
:103BDA0004C012F0120000F000F000F000F000F053
:103BEA0000F000F000F000F000F000F000F0120029
:103BFA00620E016E660EE82EFED7012EFCD7120069
:023C0A001200A6
:020000040020DA
:08000000FFFFFFFFFFFFFFFF00
:020000040030CA
:0E000000000C191EFF8381FF0FC00FE00F40A0
:00000001FF
