:020000040000FA
:040000008EEF38F057
:10711C00000195EF3AF00BC001F00CC002F00DC06D
:10712C0003F00EC004F08CEC39F00150AD6E12007F
:10713C00F00EC116CF0EC116000EC26EC050C70B9A
:10714C001809C06EC050F80B0509C06EC08E120035
:10715C00036E0D0E0364B5EF38F0B7EF38F0BDEFEA
:10716C0038F0000E026E000E016ED1EF38F0000EFA
:10717C00C26E0344E846FC0BC26EC280C282C2B22D
:10718C00CAEF38F0CCEF38F0C5EF38F0C290C3CF6F
:10719C0001F0C4CF02F01200949C948E0FC005F045
:1071AC0010C006F011C007F012C008F0000E016EFE
:1071BC002D0E026E310E036E010E046E0FEC3AF0C2
:1071CC0001C013F002C014F003C015F004C016F097
:1071DC0013C001F014C002F015C003F016C004F087
:1071EC00400E056E000E066E000E076E000E086E49
:1071FC000FEC3AF00104AF6EAC94AC98AB8EAC9C37
:10720C00AC8AAB9CAB881200000E0114096E000E08
:10721C0002140A6E800E03140B6E7F0E04140C6E97
:10722C0009500A100B100C10D8A41FEF39F021EFE5
:10723C0039F029EF39F0000E016E000E026E000ECF
:10724C00036E000E046E000E0514096E000E06147B
:10725C000A6E800E07140B6E7F0E08140C6E09500C
:10726C000A100B100C10D8A43EEF39F040EF39F097
:10727C0048EF39F0000E056E000E066E000E076E1C
:10728C00000E086E04AE4DEF39F04FEF39F058EFA9
:10729C0039F0016C021ED8B0022A031ED8B0032AA2
:1072AC00800E045608AE5DEF39F05FEF39F068EFF1
:1072BC0039F0056C061ED8B0062A071ED8B0072A6E
:1072CC00800E0856000E011A000E021A000E031A48
:1072DC00800E041A000E051A000E061A000E071A6C
:1072EC00800E081A0550015C0650025807500358CE
:1072FC0008500458D8B085EF39F087EF39F08AEF91
:10730C0039F0D8908BEF39F0D88012000334043464
:10731C000A6E0A50D8A495EF39F097EF39F0A1EF27
:10732C0039F0000E016E000E026E000E036E000EA0
:10733C00046E0EEF3AF001C005F002C006F003C077
:10734C0007F004C008F0200EB1EF39F0D8900832E5
:10735C00073206320532E82EACEF39F00550096ED3
:10736C00038EFF0E0116FF0E0216FF0E0316000E03
:10737C000416960E0A5E0ABEC8EF39F0C6EF39F055
:10738C00DEEF39F00A50800A970FD8B0D0EF39F001
:10739C00D2EF39F0D4EF39F097EF39F0D8900432BE
:1073AC000332023201320A3ED4EF39F0F6EF39F0F3
:1073BC001F0E0A64E4EF39F0E6EF39F0EEEF39F026
:1073CC0097EF39F0D89001360236033604360A06A8
:1073DC000A50D8A4F4EF39F0F6EF39F0E8EF39F0B1
:1073EC000950D8B4FCEF39F0FEEF39F006EF3AF063
:1073FC00041E031E021E016C000E02220322042234
:10740C0001C001F002C002F003C003F004C004F09C
:10741C001200000E0A6E08BE18EF3AF016EF3AF0A2
:10742C0022EF3AF0081E071E061E056C000E0622FF
:10743C0007220822010E0A6E04BE29EF3AF027EF4C
:10744C003AF033EF3AF0041E031E021E016C000EDC
:10745C00022203220422010E0A1A000E0B6E000EE9
:10746C000C6E000E0D6E000E0E6E05500610071001
:10747C000810D8B444EF3AF046EF3AF07CEF3AF00B
:10748C00010E096E50EF3AF0D890053606360736E5
:10749C000836092A08AE55EF3AF057EF3AF04AEFA2
:1074AC003AF0D8900B360C360D360E360550015C82
:1074BC00065002580750035808500458D8A069EFDA
:1074CC003AF06BEF3AF074EF3AF00550015E06506B
:1074DC00025A0750035A0850045A0B80D8900832AD
:1074EC00073206320532092E57EF3AF00A50D8B45B
:1074FC0082EF3AF084EF3AF08CEF3AF00E1E0D1E4C
:10750C000C1E0B6C000E0C220D220E220BC001F077
:10751C000CC002F00DC003F00EC004F01200B00E4F
:10752C000F6E040E106E000E116E000E126ED2EC69
:10753C0038F09EEC38F0010E926E9596000E4C6E63
:10754C00000E4B6E000E476E000E486E000E496E1C
:10755C00000E4A6E000E436E000E446E000E456E19
:10756C00000E466E000EAEEC38F001C04BF002C0BF
:10757C004CF0000E136E000E146EA00E156E400E25
:10758C00166E4BC001F04CC002F0036A046A000E88
:10759C0044EC3BF001C00FF002C010F003C011F03E
:1075AC0004C012F0EBEC3DF00FC028F010C029F035
:1075BC0011C02AF012C02BF0000E2C6EC00E2D6ED6
:1075CC007F0E2E6E440E2F6E1EEC3CF028C047F042
:1075DC0029C048F02AC049F02BC04AF047C00FF030
:1075EC0048C010F049C011F04AC012F0000E136EE2
:1075FC00000E146EA00E156E410E166EEBEC3DF0E7
:10760C000FC043F010C044F011C045F012C046F05A
:10761C0043C00BF044C00CF045C00DF046C00EF05A
:10762C0091EC38F0000E016E000E026E0C0E036E23
:10763C00420E046E43C005F044C006F045C007F08E
:10764C0046C008F00AEC39F0D8B02FEF3BF031EF20
:10765C003BF034EF3BF08C8635EF3BF08C96060E0E
:10766C00426E130E416EAE0EE82EFED7412EFCD7A5
:10767C00422EFAD7A4EF3AF000EF00F0096E095051
:10768C00D8B44BEF3BF04DEF3BF06FEF3BF004BE4B
:10769C0054EF3BF052EF3BF06FEF3BF001C005F0C5
:1076AC0002C006F003C007F004C008F0051E061E59
:1076BC00071E081E052A000E06220722082205C0F6
:1076CC000BF006C00CF007C00DF008C00EF077EF01
:1076DC003BF001C00BF002C00CF003C00DF004C075
:1076EC000EF00150021003100410D8A480EF3BF0F0
:1076FC0082EF3BF08CEF3BF0000E016E000E026E41
:10770C00000E036E000E046E1DEF3CF0960E0A6E1A
:10771C0096EF3BF00A2AD8900E320D320C320B3217
:10772C00000E0B14056E000E0C14066E000E0D14DC
:10773C00076EFE0E0E14086E05500610071008108A
:10774C00D8A4ABEF3BF0ADEF3BF090EF3BF0BBEFD1
:10775C003BF00A2A010E0B26000E0C220D220E22E3
:10776C00D8900E320D320C320B32000E0B14056E0B
:10777C00000E0C14066E000E0D14076EFF0E0E1488
:10778C00086E0550061007100810D8A4D0EF3BF077
:10779C00D2EF3BF0AFEF3BF0DAEF3BF00A06D890BC
:1077AC000B360C360D360E360DBEDFEF3BF0E1EF2F
:1077BC003BF0E9EF3BF0020E0A60E7EF3BF0E9EF3C
:1077CC003BF0D4EF3BF00AB0EEEF3BF0F0EF3BF0C8
:1077DC00F1EF3BF00D9ED8900A320AC005F0066A14
:1077EC00076A086A05C008F0076A066A056A055048
:1077FC000B1206500C1207500D1208500E120950A5
:10780C00D8B40BEF3CF00DEF3CF015EF3CF004BEA0
:10781C0014EF3CF012EF3CF015EF3CF00E8E0BC069
:10782C0001F00CC002F00DC003F00EC004F0120009
:10783C002B50800B386E2B502B243F6E2AAE29EF29
:10784C003CF02BEF3CF02CEF3CF03F803F50D8B499
:10785C0032EF3CF034EF3CF049EF3CF03F28D8A439
:10786C003AEF3CF03CEF3CF044EF3CF0000E286E5D
:10787C00000E296E000E2A6E000E2B6E2A8E000E44
:10788C002B6E51EF3CF0000E286E000E296E000E90
:10789C002A6E000E2B6E2F50800B381A2F502F246F
:1078AC00406E2EAE5CEF3CF05EEF3CF05FEF3CF0D8
:1078BC0040804050D8B465EF3CF067EF3CF07CEF73
:1078CC003CF04028D8A46DEF3CF06FEF3CF077EF24
:1078DC003CF0000E2C6E000E2D6E000E2E6E000E67
:1078EC002F6E2E8E000E2F6E84EF3CF0000E2C6E41
:1078FC00000E2D6E000E2E6E000E2F6E2C502D10C5
:10790C002E102F10D8A48DEF3CF08FEF3CF0A7EF8A
:10791C003CF0000E286E000E296E000E2A6E000E32
:10792C002B6E800E2A127F0E2B1238502B1228C071
:10793C0028F029C029F02AC02AF02BC02BF0EAEF3E
:10794C003DF03F50D8A4ADEF3CF0AFEF3CF0B9EFB9
:10795C003CF0000E286E000E296E000E2A6E000EF2
:10796C002B6EEAEF3DF040503FC030F0316A305E94
:10797C00000E315A7F0E3024396E000E31203A6ED3
:10798C0028C034F029C035F02AC036F02BC037F0AF
:10799C00000E286E000E296E000E2A6E000E2B6E45
:1079AC00000E3B6E000E3C6E000E3D6E000E3E6EE9
:1079BC00000E406E1AEF3DF04050D8B4E8EF3CF0AA
:1079CC00EAEF3CF001EF3DF0D890343635363636E0
:1079DC003736D890283629362A362B363EAEF9EF74
:1079EC003CF0FBEF3CF0FCEF3CF02880D8903B36B1
:1079FC003C363D363E362C50345C2D5035582E508E
:107A0C0036582F503758D8A00EEF3DF010EF3DF000
:107A1C0019EF3DF03E8C2C50345E2D50355A2E50C3
:107A2C00365A2F50375A402A190E406420EF3DF039
:107A3C0022EF3DF0E2EF3CF03450351036103710A9
:107A4C00D8B42BEF3DF02DEF3DF045EF3DF03B80F2
:107A5C0045EF3DF0D890283629362A362B363EAEE7
:107A6C003AEF3DF03CEF3DF03DEF3DF02880D890F3
:107A7C003B363C363D363E363906D8A03A062AAE61
:107A8C004AEF3DF04CEF3DF030EF3DF0000E406E14
:107A9C003EAE53EF3DF055EF3DF079EF3DF0FF0E6C
:107AAC003B14306EFF0E3C14316EFF0E3D14326EE3
:107ABC007F0E3E14336E3050311032103310D8B468
:107ACC006AEF3DF06CEF3DF070EF3DF0010E406E53
:107ADC0079EF3DF028A075EF3DF077EF3DF079EFB1
:107AEC003DF06CEF3DF04050D8B47FEF3DF081EFAE
:107AFC003DF0A5EF3DF0010E2826000E29222A228A
:107B0C002B222BA08CEF3DF08EEF3DF0A5EF3DF03E
:107B1C0028C030F029C031F02AC032F02BC033F02D
:107B2C003334333232323132303230C028F031C05B
:107B3C0029F032C02AF033C02BF0394A3A2A3ABE27
:107B4C00B0EF3DF03A5008E13928D8A0B0EF3DF045
:107B5C00B2EF3DF0BDEF3DF0000E3A6E3968000E0D
:107B6C00286E000E296E000E2A6E000E2B6E3ABE89
:107B7C00CAEF3DF03A5006E13904D8B0C8EF3DF0F9
:107B8C00CAEF3DF0D8EF3DF0000E3A6E000E396EA4
:107B9C00000E286E000E296E000E2A6E000E2B6E43
:107BAC00000E386E39C03FF03FA0DFEF3DF0E1EF43
:107BBC003DF0E4EF3DF02A8EE5EF3DF02A9ED890A3
:107BCC003F302B6E9BEF3CF012001250800B1B6E63
:107BDC0012501224216E11AEF6EF3DF0F8EF3DF08D
:107BEC00F9EF3DF021802150D8B4FFEF3DF001EFCB
:107BFC003EF014EF3EF02128D8A407EF3EF009EF39
:107C0C003EF011EF3EF0000E0F6E000E106E000EE7
:107C1C00116E000E126E118E1CEF3EF0000E0F6EE8
:107C2C00000E106E000E116E000E126E1650800BB0
:107C3C001B1A16501624206E15AE27EF3EF029EFB6
:107C4C003EF02AEF3EF020802050D8B430EF3EF0CA
:107C5C0032EF3EF045EF3EF02028D8A438EF3EF04E
:107C6C003AEF3EF042EF3EF0000E136E000E146E33
:107C7C00000E156E000E166E158E4DEF3EF0000EBA
:107C8C00136E000E146E000E156E000E166E205044
:107C9C00D8B453EF3EF055EF3EF05DEF3EF021507F
:107CAC00D8A45BEF3EF05DEF3EF067EF3EF0000EC8
:107CBC000F6E000E106E000E116E000E126EFFEFA6
:107CCC003FF015500F02F3CF26F0F4CF27F02650DB
:107CDC001C6E1D6A1E6A1F6A2750226E236A246A54
:107CEC00256A14501002F3CF26F0F4CF27F026505B
:107CFC001C26000E1D221E221F2227502226000E9B
:107D0C0023222422252213501102F3CF26F0F4CF84
:107D1C0027F026501C26000E1D221E221F22275043
:107D2C002226000E2322242225221EC01FF01DC055
:107D3C001EF01CC01DF01C6A13501002F3CF26F06D
:107D4C00F4CF27F026501C2627501D22000E1E2291
:107D5C00000E1F2214500F02F3CF26F0F4CF27F0A1
:107D6C0026501C2627501D22000E1E22000E1F22FC
:107D7C001EC01FF01DC01EF01CC01DF01C6A13504D
:107D8C000F02F3CF26F0F4CF27F026501C262750F5
:107D9C001D22000E1E22000E1F2215501002F3CFC2
:107DAC0026F0F4CF27F02650222627502322000E4F
:107DBC002422000E252214501102F3CF26F0F4CF0A
:107DCC0027F02650222627502322000E2422000EB4
:107DDC00252215501102F3CF26F0F4CF27F02650B0
:107DEC00176E2750186E196A1A6A19C01AF018C043
:107DFC0019F017C018F0176A1750222618502322B2
:107E0C00195024221A5025221CC017F01DC018F03E
:107E1C001EC019F01FC01AF0190E1AEF3FF0D890BF
:107E2C001A32193218321732E82E15EF3FF017506C
:107E3C00222618502322195024221A5025221EC003
:107E4C001FF01DC01EF01CC01DF01C6A205021C06C
:107E5C0017F0186A1726000E1822820E1724266EA9
:107E6C00FF0E1820276E50EF3FF0D89022362336A5
:107E7C00243625361FAE45EF3FF047EF3FF048EF75
:107E8C003FF02280D8901C361D361E361F36260633
:107E9C00D8A0270624AE55EF3FF057EF3FF03BEF4D
:107EAC003FF0000E206E1FAE5EEF3FF060EF3FF034
:107EBC0084EF3FF0FF0E1C14176EFF0E1D14186E8E
:107ECC00FF0E1E14196E7F0E1F141A6E1750181009
:107EDC0019101A10D8B475EF3FF077EF3FF07BEF25
:107EEC003FF0010E206E84EF3FF022A080EF3FF0B8
:107EFC0082EF3FF084EF3FF077EF3FF02050D8B4A3
:107F0C008AEF3FF08CEF3FF0B0EF3FF0010E2226EE
:107F1C00000E23222422252225A097EF3FF099EF73
:107F2C003FF0B0EF3FF022C017F023C018F024C090
:107F3C0019F025C01AF01A341A32193218321732C5
:107F4C0017C022F018C023F019C024F01AC025F075
:107F5C00264A272A27BEBBEF3FF0275008E12628E8
:107F6C00D8A0BBEF3FF0BDEF3FF0C7EF3FF0000EE6
:107F7C00226E000E236E800E246E7F0E256EF5EFA2
:107F8C003FF027BED4EF3FF0275006E12604D8B0CF
:107F9C00D2EF3FF0D4EF3FF0E0EF3FF0000E226E57
:107FAC00000E236E000E246E000E256E000E1B6E4E
:107FBC00F5EF3FF026C021F0FF0E2216FF0E231620
:107FCC007F0E2416000E251621A0EFEF3FF0F1EFE7
:107FDC003FF0F2EF3FF0248ED8902130256E1B50ED
:107FEC00251222C00FF023C010F024C011F025C0C0
:047FFC0012F012006D
:020000040020DA
:08000000FFFFFFFFFFFFFFFF00
:020000040030CA
:0E000000000C191EFF8381FF0FC00FE00F40A0
:00000001FF
